:100000000C942D010C945E010C945E010C945E0125
:100010000C945E010C945E010C945E010C945E01E4
:100020000C945E010C945E010C945E010C945E01D4
:100030000C945E010C945E010C945E010C945E01C4
:100040000C945E010C945E010C945E010C945E01B4
:100050000C945E010C945E010C945E010C941406E9
:100060000C945E010C9488060C945E060C945E0160
:100070000C945E010C945E010C945E010C945E0184
:100080000C945E010C945E010C945E010C945E0174
:100090000C945E010C945E010C945E010C94BE06FF
:1000A0000C945E010C945E010C945E010C945E0154
:1000B0000C945E010C945E010C945E010C945E0144
:1000C0000C945E010C945E010C945E010C945E0134
:1000D0000C945E010C945E010C945E010C945E0124
:1000E0000C945E010C944C020C94A7010C94C60174
:1000F0000C944A020C9490010C94DC010C944B0279
:100100000C9455050C942F030C94E2020C94D4012A
:100110000C949C020C94BC010C94E6010C947902A2
:100120000C9488020C94CE010C9495010C94260535
:100130000C94CA010C94E2070C94D6040C94AF0101
:100140000C94AB010C94B3010C94F9040C94B6011B
:100150000C94E2010C94C0010C94D7040C9443025B
:100160000C94AA020C94E6040C94D801000022001E
:10017000250028002B002E00310034000201000071
:10018000050108010B010505050507050808080814
:10019000020202020A0A080804040404010101011F
:1001A000010101010303030303030303040707071A
:1001B0000C0C0C0C0C0C0C0C0202020206060606BF
:1001C000060606060B0B0B0B0B0B0B0B010210208C
:1001D000200808102040102040800201020108047D
:1001E0000201010204081020408080402010080411
:1001F000020180040201804020100804020108046A
:1002000002010102040810204080010204081020AD
:10021000408000000A0B02090C0D0E0807030401C0
:1002200000000000000000000000000000000000CE
:10023000000000000000000000000000000012119B
:10024000100000000000000000000000000000009E
:100250000000000000000000E20711241FBECFEFE5
:10026000D1E2DEBFCDBF00E00CBF12E0A0E0B2E003
:10027000E0E8F5E100E00BBF02C007900D92A43268
:10028000B107D9F723E0A4E2B2E001C01D92A73A7A
:10029000B207E1F711E0CDE2D1E000E006C021971E
:1002A0000109802FFE010E94B60ACC32D10780E0FE
:1002B0000807A9F70E941E080C94BE0A0C940000BF
:1002C000282F30E0F901EE5EFD4F9491F901E453DF
:1002D000FE4F44912A573E4FF9012491222309F4FD
:1002E00035C0992311F191509231F8F4E92FF0E0E3
:1002F0008827E258FE4F8F4F0C94B60AAF01B30126
:100300009001A701AB019501B601BC01C001C60176
:10031000CA01CE01D401D8019501DC01E201E60158
:10032000809180008F7780938000E22FF0E0EE0FC5
:10033000FF1FE459FE4FA591B4918FB7F894EC914B
:10034000611148C040954E234C938FBF0895809112
:1003500080008F7DE8CF80918000877FE4CF84B5D7
:100360008F7784BDE2CF84B58F7DFBCF8091B000C5
:100370008F778093B000D9CF8091B0008F7DF9CF77
:10038000809190008F7780939000CFCF80919000E4
:100390008F7DF9CF80919000877FF5CF8091A0006D
:1003A0008F778093A000C1CF8091A0008F7DF9CF7F
:1003B0008091A000877FF5CF809120018F77809377
:1003C0002001B3CF809120018F7DF9CF8091200152
:1003D000877FF5CF4E2BB8CF3FB7F894809193022B
:1003E00090919402A0919502B091960226B5A89B97
:1003F00005C02F3F19F00196A11DB11D3FBFBA2FB7
:10040000A92F982F8827BC01CD01620F711D811D76
:10041000911D42E0660F771F881F991F4A95D1F7FB
:1004200008958F929F92AF92BF92CF92DF92EF92F8
:10043000FF924B015C010E94EC016B017C010E9468
:10044000EC016C197D098E099F09683E7340810596
:100450009105A8F321E0821A9108A108B10888EE5D
:10046000C80E83E0D81EE11CF11C81149104A10484
:10047000B10429F7FF90EF90DF90CF90BF90AF903D
:100480009F908F90089580916C0290916D02891BCE
:10049000990B089508950895AF92BF92CF92DF927D
:1004A000EF92FF920F931F93CF93DF936C017B0129
:1004B0008B01040F151FEB015E01AE18BF08C017BA
:1004C000D10759F06991D601ED91FC910190F0812D
:1004D000E02DC6011995892B79F7C501DF91CF91E0
:1004E0001F910F91FF90EF90DF90CF90BF90AF9052
:1004F0000895FC01538D448D252F30E0842F90E02A
:10050000821B930B541710F0CF960895019708950E
:10051000FC01918D828D981761F0A28DAE0FBF2FD7
:10052000B11D5D968C91928D9F5F9F73928F90E02D
:1005300008958FEF9FEF0895FC01918D828D98179C
:1005400031F0828DE80FF11D858D90E008958FEFD9
:100550009FEF0895FC01918D228D892F90E0805CA2
:100560009F4F821B91098F739927089587EE92E020
:100570000E94AA0221E0892B09F420E0822F08952D
:10058000FC01A48DA80FB92FB11DA35ABF4F2C9108
:10059000848D90E001968F739927848FA689B789FF
:1005A0002C93A089B1898C91837080648C93938DF6
:1005B000848D981306C00288F389E02D80818F7D99
:1005C00080830895EF92FF920F931F93CF93DF9351
:1005D000EC0181E0888F9B8D8C8D98131AC0E8897F
:1005E000F989808185FF15C09FB7F894EE89FF894E
:1005F0006083E889F98980818370806480839FBFEC
:1006000081E090E0DF91CF911F910F91FF90EF90EB
:100610000895F62E0B8D10E00F5F1F4F0F731127FB
:10062000E02E8C8D8E110CC00FB607FCFACFE88936
:10063000F989808185FFF5CFCE010E94C002F1CFFC
:10064000EB8DEC0FFD2FF11DE35AFF4FF0829FB7AA
:10065000F8940B8FEA89FB8980818062CFCFCF939A
:10066000DF93EC01888D8823B9F0AA89BB89E889DA
:10067000F9898C9185FD03C0808186FD0DC00FB680
:1006800007FCF7CF8C9185FFF2CF808185FFEDCFFE
:10069000CE010E94C002E9CFDF91CF91089580E0A2
:1006A00090E0892B29F00E94B60281110E9400007F
:1006B00080E090E0892B49F080E090E0892B29F0E0
:1006C0000E94000081110E94000080E090E0892BD0
:1006D00049F080E090E0892B29F00E940000811110
:1006E0000E94000080E090E0892B49F080E090E0DB
:1006F000892B29F00E94000081110C9400000895BC
:1007000020914502260F3327331F21323105ECF4A7
:100710002091BD02FC0190E080E0243069F082E08D
:100720000895A09145022191AC014B5D5D4FA40F4E
:10073000B52FB11D2C930196861798F38091450231
:10074000680F6093450280E0089581E0089510925B
:10075000BD0281E08093BC021092970261E084E1C7
:100760000E94600161E085E10E946001E9EBF0E038
:1007700080818E7F808380818D7F808388E48093D9
:10078000B80085E48093BC000895CF93DF9391E097
:10079000909324028823B9F0C091B800D091BA0098
:1007A0008091BC008A7B8093BC0060E084E10E9461
:1007B000600160E085E10E9460010E94A703D09380
:1007C000BA00C093B800DF91CF9108958F929F92A5
:1007D000AF92BF92CF92DF92EF92FF920F931F934F
:1007E000CF93DF93D091E602D13208F0D7C0182F13
:1007F000C091E5020E94EC016B017C018091BD0279
:1008000081116BC082E08093BD021093BC028FEF18
:100810008093BB021092BA02D093B902A5ECB2E069
:10082000E9E9F2E080E0D81391C01092980280913B
:100830009802CC0FC82BC093980280919702813008
:1008400009F088C0109297020E94EC016B017C01B4
:10085000809198028093BB008091BF029091C0026A
:10086000A091C102B091C202892B8A2B8B2BA1F0DF
:100870000E94EC010091BF021091C0022091C102C0
:100880003091C2026C197D098E099F09061717075E
:100890002807390708F442C08091BC0083FDD8CFF7
:1008A00085EC8093BC000E94EC016B017C0180917F
:1008B000BD02823009F450C08091BB028F3F09F421
:1008C0006FC08091BB02803209F46CC08091BB0282
:1008D000803309F469C084E026C08091BF02909102
:1008E000C002A091C102B091C202892B8A2B8B2B2E
:1008F00009F484CF0E94EC018090BF029090C00266
:10090000A090C102B090C2026C197D098E099F09A6
:1009100086169706A806B90608F070CF8091BE0229
:100920000E94C50385E01092C4021092E602109264
:10093000C302DF91CF911F910F91FF90EF90DF9055
:10094000CF90BF90AF909F908F9008959D9191937D
:100950008F5F69CF85EEA5CF8091BF029091C002D5
:10096000A091C102B091C202892B8A2B8B2B09F472
:100970009ECF0E94EC010091BF021091C002209115
:10098000C1023091C2026C197D098E099F090617B8
:1009900017072807390708F08ACFC0CF81E0C3CFF7
:1009A00080E0C1CF82E0BFCF83E0BDCF0895E0916A
:1009B0006D0280916C02E81730F4F0E0E259FD4FCF
:1009C000808190E008958FEF9FEF089590916D02E0
:1009D00080916C022FEF3FEF981748F4E92FF0E079
:1009E000E259FD4F208130E09F5F90936D02C90175
:1009F0000895CF92DF92EF92FF920F931F93CF93C0
:100A0000DF937C01CB018A012091C302222389F06C
:100A1000EB016B01C40ED51ECC15DD0569F06991A3
:100A2000D701ED91FC910190F081E02DC70119955E
:100A3000F3CF642F0E948003C801DF91CF911F91F3
:100A40000F91FF90EF90DF90CF900895CF93DF93B9
:100A50001F92CDB7DEB769832091C3022223F9F03C
:100A60002091E602203258F021E030E0FC0133838F
:100A7000228390E080E00F90DF91CF9108958091E4
:100A8000C402E82FF0E0EB53FD4F998190838F5F14
:100A90008093C4028093E60281E090E0ECCF61E0B5
:100AA000CE0101960E948003F7CF90E080E0089588
:100AB000EF92FF920F931F93CF93DF93042F122F88
:100AC000E32E91E09093C3028093E5021092C4025A
:100AD0001092E60284E893E00E942605F12EC12FD1
:100AE000DE2D699184E893E00E9426058C2F8F19F2
:100AF0008017B8F381E00E94E60391E0811190E055
:100B0000892FDF91CF911F910F91FF90EF90089562
:100B10000F931F93CF93DF9300D01F92CDB7DEB713
:100B2000282F8B014091A5033091A603E091A103EA
:100B3000F091A2038091A3039091A4038E1B9F0BBD
:100B4000642F732F0E94A20A842F932F081719076E
:100B500008F4C801689FA001699F500D789F500D4F
:100B600011244E0F5F1F19821A824B835C83622F00
:100B7000660F660F6E5F9E012F5F3F4F44E08091CE
:100B800090030E9458050F900F900F900F90DF91E7
:100B9000CF911F910F910895CF93DF931F92CDB7FF
:100BA000DEB749839E012F5F3F4F41E00E94580509
:100BB0000F90DF91CF91089585ED8093BC008091D7
:100BC000BF029091C002A091C102B091C2020796EB
:100BD000A11DB11D23E0B695A795979587952A95F8
:100BE000D1F72091BC0024FD03C01092BD020895EE
:100BF0004091BF025091C0026091C1027091C20247
:100C0000452B462B472B69F30097A105B10541F011
:100C10002AE22A95F1F700C00197A109B109E1CFB5
:100C20008091BE020C94C5031F920F920FB60F92D3
:100C300011242F933F938F939F93AF93BF938091F2
:100C40008F0290919002A0919102B0919202309106
:100C50008E0223E0230F2D3758F50196A11DB11DFB
:100C600020938E0280938F0290939002A093910222
:100C7000B09392028091930290919402A091950278
:100C8000B09196020196A11DB11D8093930290939D
:100C90009402A0939502B0939602BF91AF919F9159
:100CA0008F913F912F910F900FBE0F901F9018952D
:100CB00026E8230F0296A11DB11DD2CF1F920F92DD
:100CC0000FB60F9211240BB60F922F933F934F93B1
:100CD0005F936F937F938F939F93AF93BF93EF93A4
:100CE000FF9387EE92E00E94C002FF91EF91BF91C7
:100CF000AF919F918F917F916F915F914F913F91B4
:100D00002F910F900BBE0F900FBE0F901F90189554
:100D10001F920F920FB60F9211240BB60F922F93C2
:100D20008F939F93EF93FF93E091F702F091F80276
:100D30008081E091FD02F091FE0282FD1DC0908154
:100D4000809100038F5F8F7320910103821741F020
:100D5000E0910003F0E0E951FD4F958F809300038F
:100D6000FF91EF919F918F912F910F900BBE0F905C
:100D70000FBE0F901F9018958081F2CF1F920F9297
:100D80000FB60F9211240BB60F922F933F934F93F0
:100D90005F936F937F938F939F93AF93BF93EF93E3
:100DA000FF938091B900887F803609F44DC008F028
:100DB00040C0883209F4A9C028F5803109F49DC0EB
:100DC000C8F4882309F4FBC0883009F496C0FF9169
:100DD000EF91BF91AF919F918F917F916F915F91B3
:100DE0004F913F912F910F900BBE0F900FBE0F9020
:100DF0001F901895883109F488C0803241F780939C
:100E0000BB0214C0803409F49DC040F48033B9F3B0
:100E10008833E9F68093BB0285ECB0C0803509F4D5
:100E200085C0883509F496C0883489F60E94DC05AF
:100E3000CECF883909F48CC038F5883729F050F4C2
:100E4000883611F0803719F683E08093BD02109246
:100E5000670257C0883809F47BC0803919F08038A0
:100E600009F0B5CF80916702803208F071C0E0913F
:100E7000670281E08E0F809367028091BB00F0E0F3
:100E8000E95BFD4F80833DC0803B39F0E0F4803A60
:100E900009F479C0883A09F09ACF84E08093BD02C2
:100EA0001092460210924502E0916A02F0916B02A4
:100EB00019958091450281110FC081E08093450210
:100EC0001092250209C0803C09F4A6CF883C09F4A1
:100ED000A3CF883B09F07BCFE091460281E08E0FE3
:100EE00080934602F0E0EB5DFD4F80818093BB0074
:100EF000909146028091450229C08091980280938A
:100F0000BB0085EC8093BC0062CF9091BA028091C7
:100F1000B902981758F5E091BA0281E08E0F8093DC
:100F2000BA02F0E0E756FD4F8081E9CFE091BA02C6
:100F300081E08E0F8093BA028091BB00F0E0E7560B
:100F4000FD4F80839091BA028091B9029817C8F240
:100F500085E8D8CFE091BA0281E08E0F8093BA0283
:100F60008091BB00F0E0E756FD4F80838091BC028A
:100F700081115CCF81E08093970284EA8093BC006A
:100F80001092BD0224CF85EC8093BC001092BD026C
:100F900080916702803230F4E0916702F0E0E95B13
:100FA000FD4F10826091670270E0E0916802F0915D
:100FB000690287E492E019951092670208CF1092B7
:100FC000BB0234CFE7EEF2E01382128288EE93E0A8
:100FD000A0E0B0E084839583A683B78324E032E069
:100FE0003183208325EC30E03587248724EC30E002
:100FF0003787268720EC30E0318B208B21EC30E0E6
:10100000338B228B22EC30E0358B248B26EC30E0C6
:10101000378B268B118E128E138E148EE4E8F3E03C
:101020001382128284839583A683B78386E192E03C
:10103000918380838FE7809390030895789484B59B
:10104000826084BD84B5816084BD85B5826085BDC4
:1010500085B5816085BD80916E00816080936E0052
:101060001092810080918100826080938100809144
:1010700081008160809381008091800081608093F5
:1010800080008091B10084608093B1008091B000B5
:1010900081608093B0008091910082608093910084
:1010A0008091910081608093910080919000816097
:1010B000809390008091A10082608093A100809134
:1010C000A10081608093A1008091A0008160809345
:1010D000A0008091210182608093210180912101F3
:1010E00081608093210180912001816080932001A3
:1010F00080917A00846080937A0080917A00826087
:1011000080937A0080917A00816080937A00809148
:101110007A00806880937A001092C10010926D026C
:1011200010926C021092C4021092E6020E94A70371
:101130008AE492E090936B0280936A028BE492E0DF
:101140009093690280936802E091F702F091F802AF
:1011500082E08083E091F302F091F4021082E0914A
:10116000F502F091F6028FEC80831092FF02E0917D
:10117000FB02F091FC0286E08083E091F902F0919D
:10118000FA02808180618083E091F902F091FA0295
:10119000808188608083E091F902F091FA02808179
:1011A00080688083E091F902F091FA0280818F7D5E
:1011B00080838FE78093900340E860E00E94CC0535
:1011C0006AE070E080E090E00E94110240E160E09F
:1011D000809190030E94CC0562E070E080E090E096
:1011E0000E94110240E560E0809190030E94CC05CE
:1011F00040E060E0809190030E94CC0562E070E0E6
:1012000080E090E00E9411028AE790E09093A203B0
:101210008093A10386E692E09093A4038093A303B6
:1012200084EB90E09093A6038093A503C091900374
:101230008FB7F894C0908F02D0909002E090910206
:10124000F09092028FBFD1E0D093C302C093E50229
:101250001092C4021092E60260E084E893E00E94DB
:10126000260581E00E94E603D093C3021092C402D7
:101270001092E6020E94EC014B015C018091BD02DC
:10128000811164C081E08093BD028093BC029FEF16
:101290009093BB021092BA021092B9028093980206
:1012A00080919802CC0FC82BC0939802809197022E
:1012B000813009F09EC0109297020E94EC014B0110
:1012C0005C01809198028093BB008091BF02909155
:1012D000C002A091C102B091C202892B8A2B8B2B34
:1012E000A1F00E94EC010091BF021091C002209178
:1012F000C1023091C202681979098A099B0906174F
:1013000017072807390708F442C08091BC0083FD05
:10131000D8CF85EC8093BC000E94EC014B015C01AE
:101320008091BD02813009F466C08091BA028111BA
:1013300084C08091BA02E9E9F2E0AEE6B2E090E062
:10134000981751F121912D939F5FFACF8091BF02A1
:101350009091C002A091C102B091C202892B8A2B48
:101360008B2B09F48BCF0E94EC010091BF021091EE
:10137000C0022091C1023091C202681979098A091C
:101380009B09061717072807390708F077CF8091C0
:10139000BE020E94C50380E010926D0280936C0231
:1013A000C0E090916C0280916D02981709F447C0DB
:1013B0002FB7F89480918F0290919002A0919102A2
:1013C000B09192022FBF8C199D09AE09BF09883ECA
:1013D0009340A105B10598F584E893E00E94E604E6
:1013E000EC2F0C2E000CFF0BEF56FC4F8083CF5FD1
:1013F000D8CF85EE8FCF8091BF029091C002A0918F
:10140000C102B091C202892B8A2B8B2B09F488CFA1
:101410000E94EC010091BF021091C0022091C10214
:101420003091C202681979098A099B0906171707C2
:101430002807390708F074CFAACF81E07CCF81E07C
:101440000E94E6038FB7F89440918F02509190026A
:1014500060919102709192028FBF409191034F76FB
:10146000406160E0809190030E94CC0562E070E0F2
:1014700080E090E00E94110249E76EEF80919003B6
:101480000E94CC054091910360E0809190030E94FE
:10149000CC0562E070E080E090E00E941102409193
:1014A0009103406A60E0809190030E94CC0562E065
:1014B00070E080E090E00E9411026AE570E081E057
:1014C0000E94880568EE73E080E090E00E941102BF
:1014D0006AE570E082E00E94880568EE73E080E0D3
:1014E00090E00E9411026AE570E083E00E948805A6
:1014F00068EE73E080E090E00E9411026AE570E01F
:1015000084E00E94880568EE73E080E090E00E942D
:1015100011026AE570E085E00E94880568EE73E0DC
:1015200080E090E00E94110270E060E087E00E949D
:10153000880568EE73E080E090E00E9411020E944E
:101540004F03BBCFAA1BBB1B51E107C0AA1FBB1F88
:10155000A617B70710F0A61BB70B881F991F5A953F
:10156000A9F780959095BC01CD010895EE0FFF1F5E
:10157000881F8BBF0790F691E02D1994F894FFCF48
:1015800000000000E2024C0279022F03AA02880246
:101590009C02000000002605F9045505D60443020C
:0415A000E604D70482
:00000001FF
